:020000040800F2
:10000000E816002011020008011800087B160008FD
:1000100000000000000000000000000000000000E0
:1000200000000000000000000000000003180008AD
:1000300000000000000000009701000849180008B7
:1000400023020008230200082302000823020008FC
:1000500023020008230200082302000823020008EC
:1000600023020008230200082302000823020008DC
:1000700023020008230200082302000823020008CC
:1000800023020008D5180008000000002302000821
:10009000C5180008230200082302000823020008F4
:1000A000230200082302000823020008230200089C
:1000B00023020008000000002302000800F002F8FC
:1000C00000F03EF80CA030C8083824182D18A246BD
:1000D000671EAB4654465D46AC4201D100F030F895
:1000E0007E460F3E0FCCB6460126334200D0FB1AA7
:1000F000A246AB463343184754270000742700003C
:10010000103A02D378C878C1FAD8520701D330C860
:1001100030C101D504680C60704700000023002442
:1001200000250026103A01D378C1FBD8520700D32E
:1001300030C100D50B6070471FB51FBD10B510BD95
:1001400000F014FA1146FFF7F7FF01F087FC00F00A
:100150002CFA03B4FFF7F2FF03BC00F033FA0000FF
:10016000084B19680868203080F30988022080F362
:100170001488BFF36F8F3FBCAE4608BC04BC62B6A8
:10018000184700001C000020EFF3108072B6704783
:1001900080F310887047EFF309800E4B1A682038FF
:1001A0001060F0C044464D4656465F46F0C008B564
:1001B00072B602F011F862B60CBC11680868103013
:1001C000F0C8A046A946B246BB4680F3098820384D
:1001D000F0C818471C00002070B505460C461646AE
:1001E00002E00FCC0FC5103E102EFAD2082E02D31B
:1001F00003CC03C5083E042E07D301CC01C5361F2E
:1002000003E021782970641C6D1C761EF9D270BD44
:100210000748804707480047FEE7FEE7FEE7FEE79E
:10022000FEE7FEE704480549054A064B7047000013
:10023000C1180008BD000008E8100020E8160020E2
:10024000E8120020E8120020FEB5054610460C46D4
:10025000184373D0AE468C460020AD1A01469C412F
:1002600067D36646002701243D46B61A9D4102D356
:1002700013463A462124654676462F04360C3E4303
:100280002D0CB61A9D4104D3150C1B042B431204EC
:100290001034654676462F06360A3E432D0AB61AB6
:1002A0009D4104D3150E1B022B43120208346546F0
:1002B00076462F0736093E432D09B61A9D4104D3D1
:1002C000150F1B012B431201241D65467646AF070F
:1002D000B6083E43AD08B61A9D4104D3950F9B0066
:1002E0002B439200A41C65467646EF0776083E43F2
:1002F0006D08B61A9D411AD392185B41641C16E032
:100300000018764665464941B71A9D410191009013
:1003100009D36046B11A98418E46844600980199E7
:100320000025401C6941DD0752082A435B08641E12
:10033000E6D57246634603B0F0BDFFE700200146F4
:10034000C046C0462A462346F5E7F8B5042A2CD312
:10035000830712D00B78491C0370401C521E830780
:100360000BD00B78491C0370401C521E830704D02D
:100370000B78491C0370401C521E8B079B0F05D045
:10038000C91ADF002023DE1B08C90AE0FFF724FF9B
:10039000F8BD1D4608C9FD401C46B4402C4310C0A2
:1003A000121F042AF5D2F308C91A521EF0D40B7892
:1003B000491C0370401C521EEAD40B78491C037080
:1003C000401C012AE4D409780170F8BD01E004C0A2
:1003D000091F0429FBD28B0701D50280801CC907A5
:1003E00000D00270704700290BD0C30702D0027002
:1003F000401C491E022904D3830702D50280801CB9
:10040000891EE3E70022EEE70022DFE7002203096E
:100410008B422CD3030A8B4211D300239C464EE01F
:1004200003460B433CD4002243088B4231D30309DB
:100430008B421CD3030A8B4201D394463FE0C3098D
:100440008B4201D3CB01C01A524183098B4201D3A5
:100450008B01C01A524143098B4201D34B01C01A90
:10046000524103098B4201D30B01C01A5241C30808
:100470008B4201D3CB00C01A524183088B4201D377
:100480008B00C01A524143088B4201D34B00C01A63
:100490005241411A00D201465241104670475DE078
:1004A000CA0F00D04942031000D3404253400022FB
:1004B0009C4603098B422DD3030A8B4212D3FC22A4
:1004C000890112BA030A8B420CD3890192118B4223
:1004D00008D3890192118B4204D389013AD0921139
:1004E00000E08909C3098B4201D3CB01C01A5241F4
:1004F00083098B4201D38B01C01A524143098B42BD
:1005000001D34B01C01A524103098B4201D30B01A5
:10051000C01A5241C3088B4201D3CB00C01A5241CA
:1005200083088B4201D38B00C01A5241D9D24308B1
:100530008B4201D34B00C01A5241411A00D20146EE
:10054000634652415B10104601D34042002B00D558
:100550004942704763465B1000D3404201B500201A
:10056000C046C04602BD704770477047754600F0F0
:1005700025F8AE46050069465346C008C0008546CA
:1005800018B020B5FFF74EFE60BC00274908B646FC
:100590000026C0C5C0C5C0C5C0C5C0C5C0C5C0C592
:1005A000C0C5403D49008D46704710B50446C04661
:1005B000C0462046FFF7CDFD10BD00000048704743
:1005C0008810002001491820ABBEFEE7260002007B
:1005D00070470000F8B5044600200090206881684C
:1005E0008907890F012905D10168C90731D1C1687F
:1005F00009042ED48168184A1026114001250029CB
:100600001AD1816829438160154814490068FFF7B1
:10061000FDFE00E0401E00900028FBD100F008FB2A
:10062000074611E000F004FBC01B02280CD920682B
:100630000068C043C00707D0A06B3043A063E06BE5
:100640002843E0630120F8BD20680068C043C0076C
:10065000E8D10020F8BD00001700008040420F00E4
:100660001800002072B6FEE7F8B5054604462035AE
:10067000287D0026012808D001202875206881687F
:100680008907890F012908D101E00220F8BD01681E
:10069000C9073CD1C168090439D4A16BFF220132DA
:1006A000914302221143A163C1688907890F009118
:1006B000C16889088900C160206881689207114378
:1006C000816000F0B5FA074612E000F0B1FAC01BF5
:1006D00002280DD920688068002809DAA06B022161
:1006E000884310210843A063002028750120F8BD2D
:1006F000206880680028E8DB2068C168009A114300
:10070000C160A06B80088000401CA06304E0A06B67
:1007100020210843A0630126002028753046F8BD3B
:10072000F8B50025044620340095227D012A3BD0EF
:100730000122227503689E68760776D43F4F4E6883
:10074000BE4254D09E6A0F78BA4016439E6201237F
:10075000C26A1B079A421FD0012A1DD0022A1BD051
:10076000032A19D0042A17D0052A15D0062A13D037
:10077000072A11D002688B6856697607760FB34254
:100780000AD05369DB08DB005361006842690B7AC9
:100790005B075B0F1A4342610868102806D01128D6
:1007A00004D0122802D045E00220F8BD244A936804
:1007B000102809D011280AD00120000603439360B5
:1007C0000868102806D035E00120C005F6E70120B2
:1007D0008005F3E71C481B490068FFF717FE0A2154
:1007E000484300E0401E00900028FBD122E0986AB8
:1007F0000E78B240904398620868102803D0112800
:1008000001D0122816D10E498A68102807D0112865
:1008100008D00120000682438A600BE005E0012039
:10082000C005F8E701208005F5E7816B2022114320
:1008300081630125002020752846F8BD01100000C5
:100840000027014040420F00180000200068006CA3
:1008500070470000F8B500260446002805D0A06BBC
:1008600025462035002802D007E00120F8BD0020F1
:10087000E0632875204600F0A9F8A06B1022C0069E
:10088000002870DB2068816849076CD4A16B1301D4
:10089000994302231943A16381688907890F0129BC
:1008A00005D10168C9070FD1C16809040CD4C1681A
:1008B00018239943A3681943C160206801696368DC
:1008C00089008908194301612068C1683D4B1940BE
:1008D000C160207E617E8003C9030843A17E4B0373
:1008E0001843A36A012B02D001231B0300E000235D
:1008F0001843E36818432369022B09D000231843E7
:100900002B79E57E5B0018430123012D02D00AE01C
:100910000423F4E7002927D0A16B20252943A163F4
:10092000E16B1943E163E1690D46FF3DC23D02D031
:10093000256A294308432168CD680543CD60012518
:10094000E16A2D07A94213D0012911D002290FD045
:1009500003290DD004290BD0052909D0062907D079
:10096000072905D010E028E0012109040843DAE74F
:1009700021684D69ED08ED004D6121684D69A78D35
:100980007F077F0F3D434D612168C9680E4D2940A7
:10099000814207D10020E063A06B80088000401CEA
:1009A000A06308E0A06B022188431043A063E06BC2
:1009B0001843E06301263046F8BDA06B1043A063E6
:1009C000F8E700001902FEFFE7FF3F8310B586B08D
:1009D000044614216846FFF717FD10492068884235
:1009E00019D10F48826941150A43826182690A4020
:1009F0000592426909020A43426140690840059034
:100A000001200090032001900020029009206946F7
:100A1000C00600F035F806B010BD0000002401400B
:100A20000010024070B5044621680020896849071B
:100A300021D425462035297D01291CD00121297585
:100A4000617E012904D02046FFF7C4FD002811D1A2
:100A5000A16B0A4A1140FF2201321143A163002118
:100A6000E163297522681C21116021688A680423CA
:100A70001A438A6070BD022070BD0000FEF1FFFFC6
:100A8000F8B5002303240125BAE02E469E40B44663
:100A900032407CD00E79B607B60F012E01D0022E5F
:100AA00017D186682746B6465E00B7400096764660
:100AB000BE43B646CF68009EB74076463743876050
:100AC00046686746BE430F79FF06FF0F9F403743D6
:100AD00047600E79F643B6070ED0C6682746B4467F
:100AE0005E00B646B7406646BE43B4468F6876465B
:100AF000B74066463743C7600E79B607B60F022E79
:100B000014D1DE08B60036180096366A5F07B44680
:100B1000FE0E0F27B646B7406646BE43B4460F6981
:100B20007646B74066463743009E376206682746DA
:100B3000B4465E00B646B7406646BE430F79B4463B
:100B4000BF07BF0F7646B7406646374307604E681B
:100B5000B603B60F53D02D4FBE692E43BE61BE699A
:100B60009F08F607F60F2A4EBF00BE190096B6681A
:100B70000F27B4469E07360FB646B7406646BE43BB
:100B80000927FF06B446B84202D1002710E036E03C
:100B9000204FB84201D101270AE01F4FB84201D1CE
:100BA000022705E01D4FB84201D1032700E00527C9
:100BB0007646B74066463743009EB760184EB66823
:100BC0004F689643FF0200D51643154FBE60FE687E
:100BD0004F689643BF0200D51643114FFE607E68F2
:100BE0004F689643BF0300D516430D4F7E603E68A5
:100BF0004F689643FF0300D51643094A16605B1CF5
:100C00000A681646DE4000D03FE7F8BD00100240FB
:100C1000000001400004004800080048000C0048A3
:100C200000040140002A01D0816170478162704751
:100C300001488068704700000C000020024881686D
:100C400002788918816070470C00002010B50648B2
:100C50000168102211430160032000F007F800F042
:100C600053F8002010BD00000020024030B50546BA
:100C70001F4887B0C26910210A43C261C069084099
:100C8000009005A901A800F0EBF80498002815D001
:100C900000F002F940001749FFF7B8FB411E174862
:100CA000154A0260164AC2604160002101618160FC
:100CB000816100F021FB040003D015E000F0ECF8A6
:100CC000E9E70E4800F080FB04000DD1112000F090
:100CD00033F8042D07D200222946112000F038F8FD
:100CE0000848056000E00124204607B030BD000040
:100CF0000010024040420F0000100040500300204E
:100D0000E70300001000002008B50A4881690122AD
:100D100011438161816911400091C26901040A4354
:100D2000C261C0690022084003210090481F00F002
:100D30000FF808BD00100240002805DBC106C90EEF
:100D400001208840014908607047000000E100E090
:100D500010B500F061FE10BDF8B50F46060059D081
:100D60003A4D2868C007C00FB84209D22868400829
:100D70004000384328602868C007C00FB84249D1F6
:100D80003068334C81070CD5400704D560680721D3
:100D90000902084360606068F0218843B168084335
:100DA00060603078C00726D0706801280ED02168B6
:100DB00002280ED0890700292CDA61688908890089
:100DC00001436160FFF734FF00900DE02168890363
:100DD000F1E78901EFE7FFF72BFF0099411A1D4862
:100DE000814201D90320F8BD60680C210840716878
:100DF00089008842EFD12868C007C00FB8420BD9DC
:100E0000286840084000384328602868C007C00FA1
:100E1000B84201D00120F8BD3078400706D560689F
:100E2000072109028843F1680843606000F044F834
:100E30006168094A0906090F515CC8400749086002
:100E40000320FFF713FF0020F8BD00000020024040
:100E5000001002408813000020280008180000201D
:100E600010B5072202600A4A53689B079B0F436034
:100E70005368F02423408360526807231B021A4002
:100E8000C26004480068C007C00F086010BD0000C1
:100E900000100240002002400448054900684968EB
:100EA000044A4905490F515CC840704718000020AA
:100EB000001002403028000810B5104A51680C207C
:100EC0000B4603400E48042B17D0082B15D18B027C
:100ED0000C4C1B0FE45CD26A0A4B1207120F103342
:100EE0009A5CC90305D500231946FFF7ADF92146E1
:100EF00001E02046044900F076FD10BD00100240DC
:100F000000127A000028000800093D00FEB5040028
:100F100070D02078DC4DC0074AD068680007800F89
:100F2000012807D068680007800F022809D1686887
:100F3000C00306D5286880033AD560680028E7D04A
:100F400036E06168012914D001208004002901D015
:100F5000052914D02A68012109048A432A602968D6
:100F6000814329606068002816D0FFF761FE0646BD
:100F70000EE028680121090408432860F2E7296887
:100F800001432960F5E7FFF753FE801B64286ED804
:100F900028688003F7D50BE0FFF74AFE064604E019
:100FA000FFF746FE801B6428F1D828688003F7D439
:100FB00020780126800700283CDA68680007800F47
:100FC00007D068680007800F022809D16868C0034D
:100FD00006D42868800716D5E06801280AD112E0F7
:100FE000E0680028286816D030432860FFF720FE0C
:100FF000074605E043E1FFF71BFEC01B0228C6D8E9
:1010000028688007F7D52868F82188432169C90036
:10101000084328600EE0400840002860FFF708FE03
:10102000074604E0FFF704FEC01B0228AFD828687B
:101030008007F7D42078000722D5E0690028686A85
:101040000ED030436862FFF7F3FD074604E0FFF778
:10105000EFFDC01B02289AD8686A8007F7D50FE019
:10106000400840006862FFF7E3FD074605E09DE0A9
:10107000FFF7DEFDC01B022889D8686A8007F7D415
:10108000207804274007002860DA00200190E869F2
:10109000C00008D4E969B8060143E961E969014083
:1010A00001200091019079480168C90511D40168B7
:1010B000821511430160FFF7BBFD009005E0FFF7CB
:1010C000B7FD0099401A642870D870480068C005C0
:1010D000F5D5A06801280AD0002801D0052810D035
:1010E000286A400840002862286AB84301E0286A5C
:1010F00030432862A068002812D0FFF799FD0090C5
:101100000AE0286A38432862F1E7FFF791FD009969
:10111000411A5F48814249D8286A8007F5D50DE019
:10112000FFF786FD009006E0FFF782FD0099411A67
:10113000574881423AD8286A8007F5D40198002898
:1011400004D0E969012000078143E9612078C006E5
:1011500035D5606901280CD0401D686B23D0384319
:101160006863686B400840006863FFF761FD0646EE
:1011700022E0686B38436863686B30436863FFF74D
:1011800057FD064604E0FFF753FD801B02285BD89D
:10119000686B8007F7D5686BF8218843A169C9009F
:1011A000084368630BE0B8436863F4E74CE0FFF77B
:1011B0003FFD801B022847D8686B8007F7D4206A60
:1011C00000285ED069680907890F022942D00126EC
:1011D00036060228286805D0B0432860FFF728FDAE
:1011E000044633E0B0432860FFF722FD074604E0E1
:1011F000FFF71EFDC01B022826D828688001F7D4FF
:10120000E86AE16A000900010843E862616AA06ACD
:10121000084369683D2212049143084368602868C6
:1012200030432860FFF704FD044604E0FFF700FDAB
:10123000001B022808D828688001F7D521E0FFF7B5
:10124000F7FC001B022801D90320FEBD286880019D
:10125000F5D416E00128F8D06868E96A0122120482
:10126000636A02409A420AD10907E26A090F914271
:1012700005D10F2189040840A16A884201D00120CC
:10128000FEBD0020FEBD00000010024000700040C6
:101290008813000070477047F0B502462032137F74
:1012A000012B21D001251577022353770668746836
:1012B000B3687027BC430F682743776000680B4C06
:1012C000A04208D0AC07A04205D0094CA04202D0F1
:1012D000084CA04204D180244968A343194381608B
:1012E000557700201077F0BD0220F0BD002C0140A2
:1012F000000400400040014070B5040005D02546C0
:101300002035687F002802D006E0012070BD002053
:101310002877204600F014F802206877211D206805
:1013200000F0E0FA01204034A071A877E87720703F
:101330006070A070E070207160716877002070BDEF
:1013400008B500680A49884210D10A48826901211B
:1013500009040A4382618069002208400090032149
:101360001420FFF7F5FC1420FFF7E6FC08BD000091
:101370000040014000100240014620314A7F012A0E
:1013800001D00120704702224A7700680B4A0121F0
:10139000904208D08A07904205D0094A904202D074
:1013A000084A904204D182685207520F062A02D09E
:1013B00002680A430260002070470000002C0140D0
:1013C0000004004000400140014620314A7F012ACC
:1013D00001D00120704702224A770268D3680121B8
:1013E0000B43D36000680B4A904208D08A079042B2
:1013F00005D0094A904202D0084A904204D182683E
:101400005207520F062A02D002680A4302600020E7
:1014100070470000002C01400004004000400140E3
:10142000F8B5054604462035287F0026012817D048
:101430000120287702206877226890687727FF23A9
:10144000B8431B02984390600868502838D00EDCDF
:1014500020284FD006DC00284CD010281ED149E0AF
:101460000220F8BD302845D0402817D13AE0602846
:101470002ED0702819D001221203801A0FD090426A
:101480000CD1CB684A688968206800F075FA20683A
:101490008168012292031143816000E0012601204E
:1014A0006877002028773046F8BDCB684A6889689D
:1014B000206800F061FA2168886838438860EEE7A8
:1014C000CA684968206800F06AFA5021206806E07E
:1014D000CA684968206800F073FA6021206800F04B
:1014E00056FADCE7CA684968206800F058FA4021DB
:1014F0002068F4E7226801461046F0E7704770B5AF
:101500000446006801690025C9438907002915DBE5
:10151000C168C943890711D4E91E01610120207700
:10152000206880698007204602D0FFF7E7FF04E0CB
:1015300000F096F8204600F094F8257720680169BD
:10154000C943490717D4C168C943490713D40421C3
:10155000C943016102202077206880698005800FDF
:10156000204602D0FFF7CAFF04E000F079F82046D9
:1015700000F077F8257720680169C943090716D478
:10158000C168C943090712D40821C9430161042075
:1015900020772068C0698007204602D0FFF7AEFFA1
:1015A00004E000F05DF8204600F05BF82577206845
:1015B0000169C943C90617D4C168C943C90613D410
:1015C0001021C9430161082020772068C069800587
:1015D000800F204602D0FFF791FF04E000F040F8B2
:1015E000204600F03EF8257720680169C943C90705
:1015F00008D1C168C943C90704D1891E01612046C9
:1016000000F030F820680169C943090609D4C168AF
:10161000C943090605D48021C94301612046FFF76B
:1016200039FE20680169C943490609D4C168C94324
:10163000490605D44021C9430161204600F01CF849
:1016400020680169C943890609D4C168C94389066C
:1016500005D42021C94301612046FFF71CFE70BD5F
:101660007047704710B500680249884201D1FFF702
:10167000E5FA10BD001000407047FEE73EB50024BB
:101680001749184800940194029412C00460022182
:10169000446081600421C160047401214474817438
:1016A000C4740A0242618A028261024618321471CD
:1016B00001620838FFF7CEF8002801D0FEF7D2FF0C
:1016C000012000030190000402900094694605483F
:1016D000FFF726F8002801D0FEF7C4FF3EBD00004A
:1016E00000240140C802002010B590B000200E90E8
:1016F0000F9001210EA800F0D8F90C4C1C22A0601C
:101700000B496846FEF768FD0021684600F0EDF9D8
:10171000074920601C221C3107A8FEF75DFD00214F
:1017200007A800F0E2F9606010B010BD00000020D2
:10173000C827000830B587B014216846FEF764FE5C
:1017400011484269012149040A43426142690A4041
:101750000592426989000A43426140690B4D084085
:10176000CC120590002221462846FFF75BFA0021A3
:101770000120029103910190009469462846FFF7E9
:101780007FF907B030BD000000100240000800489B
:1017900010B586B0002400941649174801940294AD
:1017A00003940494059412C004608460C4601349D7
:1017B000046141600838FFF79FFD002801D0FEF763
:1017C00051FF01200003009069460B48FFF728FEF7
:1017D000002801D0FEF746FF202004A911C10648C9
:1017E0000839FFF759FD002801D0FEF73BFF06B08E
:1017F00010BD00000040014008030020FFFF000072
:10180000FEE77047012000F043F9FBE70B48FFF7C4
:1018100009F90A48FEF728FF094EFF24094D013453
:101820000648FFF713F8B04201D9012200E0002278
:1018300021462846FFF7F6F9F2E70000C80200202B
:10184000B80B00000008004810B5FEF79DFC0446E8
:1018500000F0A0FE002803D00120034900074860E3
:101860002046FEF795FC10BD00ED00E010B590B0ED
:1018700030216846FEF7C8FD002412200F94009026
:1018800001200D940390059010200E940490069072
:101890000C9408946846FFF739FB002801D072B613
:1018A000FEE707200C900D940E9400210F940CA8D5
:1018B000FFF752FA002801D072B6FEE710B010BD53
:1018C0007047000010B50248FFF719FE10BD000078
:1018D0000803002010B50248FFF711FE10BD0000FC
:1018E00050030020F0B502681D4B0124A4071D4DD4
:1018F000984203D0A04201D0A84203D17026B2433F
:101900004E683243184E194F98420DD0A0420BD06A
:10191000A84209D0164CA04206D0B04204D0B8422A
:1019200002D0144CA04204D103242402A243CC6868
:1019300022438024A2434C69224302608A68C26227
:101940000A688262984206D0B04204D0B84202D0FF
:10195000084A904201D10969016301214161F0BD4A
:10196000002C0140000400400040014000440140C0
:10197000002000400048014030B58468FF252D025A
:101980001B021343AC430B432343836030BD826887
:1019900070239A430A4307210A438260704730B597
:1019A000036A046A6408640004628469F025AC4335
:1019B000120122430A24A3430B438261036230BD18
:1019C00030B5036A1024A34303628469036A0F25B8
:1019D0002D031203AC432243A024A343090119435E
:1019E0008261016230BDF8B5040C8BB2264682B22A
:1019F0005E430D0C1046370C584336048019002105
:101A0000794116466E43370C3604801979412646D3
:101A10006E438919F8BD00008307FF22DB0E9A4050
:101A20008907090E9940002808DB830809489B00B4
:101A30001B18186890430843186070470007000F90
:101A40000838830804489B001B18D8699043084352
:101A5000D861704700E400E000ED00E0FFF7F6F821
:101A6000FFF704FFFFF766FEFFF708FEFFF790FEA3
:101A70000348FFF781FCFFF737FE00F011F8FEE79F
:101A80000803002001460020842900D0C81C7047AC
:101A900010B5002800D1012000F032FB002010BD5D
:101AA00010B500F065FB002010BD38B54368002B71
:101AB00009D0012909D103200022009011460120FC
:101AC00000F0FCFB38BD012901D0002038BD032205
:101AD0000021012000F0D4FB040004D000231A46AA
:101AE000194600F041FC204638BD7FB50D4604463E
:101AF00041690820205E002911D0A16900290ED07B
:101B0000FFF7C0FF6B46A269616907C32B462269D4
:101B10002168606800F00BFD039004B070BDFFF712
:101B2000B1FF03A901910090208A2B4682B221685F
:101B3000606800F0D3FC012801D00020EDE7039895
:101B4000EBE70000F8B5134C0F46666905462068C0
:101B5000001D00F03DFA681C07D1002F05D0216858
:101B60000D48091D00F078FAF8BD20687519456028
:101B70002168B54204D2A068091D00F055FAF8BDED
:101B80006068091D00F050FA206B8542F7D225638A
:101B9000F8BD00001C00002074040020F8B50546C4
:101BA00000F066FA294C2069401C20612068284F0B
:101BB000002803D0E069002827D02CE025602069A8
:101BC000012828D1002614207043C01900F01EFA05
:101BD000761C072EF7D31E488C3000F017FA1C48ED
:101BE000A03000F013FA1A48B43000F00FFA184889
:101BF000C83000F00BFA1648DC3000F007FA144841
:101C00008C3060601430A06005E02068E96AC06A2A
:101C1000884200D82560E06A401CE062E86AA16959
:101C2000884200D9A06114214843C019291D00F041
:101C300013FA00F029FAE069002806D02068E96A62
:101C4000C06A884201D200F04FFAF8BD1C000020A3
:101C500098030020F8B5856B174604460026026CF1
:101C6000002A11D0002F19D0E068FEF76EFBE16862
:101C7000206C091AE1602268914202D26168081A58
:101C8000E060022F17D019E02068002816D16068A4
:101C900000F0DEFC0646002060600FE0A068FEF762
:101CA00054FB216CA0684018A0606168884205D38D
:101CB0002068A06002E0002D00D06D1E6D1CA563A1
:101CC0003046F8BD10B504464030407C002805D0B1
:101CD000012806D0022807D072B6FEE7206B00F07C
:101CE000E1F9204600F0DEF910BD000003210E48A6
:101CF0008902420705D0C01DC0080B4AC000821AE5
:101D0000891A0A4A0023411809C20839C908C900BA
:101D1000183A11604B600B600B1A0AC093600120E7
:101D2000C0075360D060704788040020680000201E
:101D30000F4E104C3746C83F11E000F099F9F0689B
:101D4000C568281D00F044F92069401E2061E06844
:101D5000401EE06000F098F92846FFF7B3FFE06806
:101D60000028EAD138680128F9D900F0BDF9F6E772
:101D7000600400201C00002010B5034602980029D2
:101D800006D00260C3630164012100F0B7FA10BD00
:101D90000060F7E7FFB581B00C9C9000236B001F3B
:101DA0001818C6080A9DF600700701D072B6FEE743
:101DB00023180A5C20331A750A5C002A02D0401CE2
:101DC0001028F5D32046403000270090C770072D1B
:101DD00000D30625E562A764201D656400F021F9A3
:101DE0002046183000F01DF924610720401B646272
:101DF000A061E764009807743046049A019900F0E6
:101E0000D7F820600B98002800D0046005B0F0BD22
:101E100030B5114900E011460A688242FBD34B6895
:101E20005C18844203D1406818184860084643682B
:101E30001C18944209D1084C103C2468A24209D0D5
:101E400052689A1842600A6812680260814200D0A3
:101E5000086030BD0460F9E768000020064841686A
:101E60000968002905D04168C968C96849680163E3
:101E700070470021C943FAE71C00002003480068AE
:101E8000401C72B600D0FEE7FEE7000070000020A4
:101E9000F8B5044600F0ECF8254640350526AE5767
:101EA000274624370BE0606A00280AD0384600F045
:101EB00003FC002801D000F043F9761E76B2002E14
:101EC000F1DC0027FF436F7100F0DEF800F0D0F87E
:101ED0000426AE572046103000900BE02069002801
:101EE0000AD0009800F0E8FB002801D000F028F9A3
:101EF000761E76B2002EF1DC2F7100F0C5F8F8BD29
:101F0000F8B50546002700F05FF9284E3068002834
:101F100001D1FFF7EBFEF06805423FD1002D3DD027
:101F20000835680708D06807400F0821081A4519C6
:101F3000680701D072B6FEE7002D2FD07068854289
:101F40002CD81A48103001460C6801E020460C4697
:101F50006168A94202D221680029F7D131688C4218
:101F60001CD007682168016060680837411B102990
:101F700008D96019420701D072B6FEE7416065607A
:101F8000FFF746FF61687068401A7060B26890425F
:101F900000D2B060F0680143002003C400F0BEFB33
:101FA000780701D072B6FEE73846F8BD5800002029
:101FB00010B50124031F24061C601B1F1960191F84
:101FC000024B0B60143940380A6010BD7D1E0008BA
:101FD0004368826801699A60836842685A604A6807
:101FE000824201D182684A60002202610868401E74
:101FF0000860086870470000034B036018465430BF
:10200000086080201060704774000020014608318D
:1020100000224160D243C160826001610021016001
:10202000704700210161704730B50B685A1C02D01F
:102030000246083202E0026904E02246546825683C
:102040009D42FAD953684B6099608A60516008617B
:102050000168491C016030BD42684A6093688B602A
:1020600093685960916008610168491C016070477C
:1020700072B604480168491C0160BFF34F8FBFF37B
:102080006F8F70477000002005490868002804D051
:10209000401E086000D162B6704772B6FEE70000CD
:1020A0007000002070B500281AD004460D4D083C81
:1020B0006068E968084201D172B6FEE72268002A2A
:1020C00001D072B6FEE78843606000F07DF860687A
:1020D0006968401868602046FFF79AFE00F01EFB12
:1020E00070BD00005800002001200449000748602E
:1020F000BFF34F8FBFF36F8F7047000000ED00E01C
:1021000010B502000FD00948806B002801D072B6CC
:10211000FEE700F059F800211046FFF713FD00F02C
:10212000FDFA002801D1FFF7DFFF10BD1C000020E1
:1021300002498A6A02604969416070471C000020B8
:1021400001490120486270471C00002010B50C4670
:10215000002809D0054909681831FFF765FF0121FA
:102160002046FFF7EFFC10BD72B6FEE71C00002012
:1021700010B586B00024039405AA04A903A804940A
:10218000FFF73AFF0499039800940191029000230D
:1021900009A10B48059A00F0CAF90A4900284863CA
:1021A00008D072B60020C04308630120C8614C61AA
:1021B00000F03EF806B010BD49444C450000000058
:1021C000311D00081C0000200248816B491C8163FE
:1021D000704700001C00002010B51348816B0029D7
:1021E00002D00121416210BD0021416281690F4A84
:1021F00002E0002915D0491E14234B43D358002B6D
:10220000F7D014234B439A18536814465B6808347C
:102210005360A34201D15B685360DA680260816158
:1022200010BD72B6FEE700001C00002098030020DD
:1022300070B50F48016AFF22120411430162016A5E
:102240001202114301620B4C00252561A5610A4869
:102250007D21C9000068FEF7D9F8401E60610720A3
:10226000206106480560FDF77BFF002070BD00007F
:1022700000ED00E000E000E0180000207000002009
:10228000F8B517460E46050014D0002E14D0704342
:102290004830FFF735FE04000AD0002146200155E2
:1022A000224648323B46314628460094FFF764FDFB
:1022B0002046F8BD72B6FEE70020E9E7F8B5069DB6
:1022C000002806D0002B06D0002A08D0002904D010
:1022D00009E072B6FEE772B6FEE772B6FEE70029C5
:1022E00001D072B6FEE748241C46012640339E7199
:1022F0002B460094FFF740FD2046F8BD70B50D4613
:10230000040025D0FFF7B4FE216CE06B4843216840
:10231000411861600021A1632168A160E06B216C1C
:10232000401E484321684118E1600021C94320460E
:102330004030017141713038002D0BD0FFF766FE3F
:1023400020462430FFF762FEFFF79EFE012070BD9D
:1023500072B6FEE721690029F6D000F0ADF9002839
:10236000F2D0FFF7C1FEEFE7FFB5002683B01D46B0
:10237000040003D00498002802D006E072B6FEE7FD
:10238000206C002801D072B6FEE7022D04D1E06B6C
:10239000012801D072B6FEE700F0ECF80027002813
:1023A00004D10598002801D072B6FEE7FFF760FE61
:1023B000A06BE16B884207D3022D05D00598002859
:1023C00017D0002E18D01BE02A4620460499FFF7AC
:1023D00041FC616A002903D02046243000F06CF9EA
:1023E000002801D0FFF780FEFFF74EFE012007B066
:1023F000F0BDFFF749FE22E06846FFF799FE01268F
:10240000FFF742FEFFF7E0FEFFF732FE20464030C6
:1024100004214156491C00D1077105214156491C30
:1024200000D14771FFF730FE05A9684600F028F893
:10243000002806D02046FFF72BFD00F06FF90020A2
:10244000D5E7FFF715FEA06BE16B884210D1FFF7CF
:102450001BFE204610300599FFF778FE2046FFF757
:1024600017FD00F05BF90028A0D1FFF73DFE9DE7C6
:10247000FFF70AFE2046FFF70BFD00F04FF995E746
:10248000F8B50C46050012D0002C12D0FFF7F0FD75
:10249000114B5A696E682068911B471C0BD02F683E
:1024A0009B6A9F420CD096420AD8012404E072B67F
:1024B000FEE772B6FEE70024FFF7E6FD2046F8BD12
:1024C000884205D9401A20602846FFF731FEF2E71E
:1024D00000202060E9E700001C000020FFB585B067
:1024E000164690000F9FFFF70BFD05001CD05420EF
:1024F000FFF706FD040014D0002051212563085584
:102500000E9900910390019702943246089B069918
:102510000598FFF73FFC2046FFF740FB012009B07C
:10252000F0BD2846FFF7BEFD0020C043F7E7F0B539
:1025300085B007460B9D0C9C0A98002D15D0002CE9
:1025400015D054262563022551263555002504AEA5
:1025500000900196039502943846FFF71BFC204635
:10256000FFF71CFB049805B0F0BD72B6FEE772B62B
:10257000FEE700000648C169002904D0806B0028EE
:1025800003D00020704701207047022070470000F0
:102590001C000020F8B52C4C0027A06B002808D0A8
:1025A000206A401C2062606A002800D0012738465B
:1025B000F8BD6669761C66610ED160680068002807
:1025C00001D072B6FEE76068A1686160A060A06A91
:1025D000401CA062FFF742FC206B86420AD3606871
:1025E0000068002810D06068C068C56868688642C6
:1025F0000DD2206320681421C06A4843134908584B
:102600000128D0D90127CEE70020C043F1E7281DDB
:10261000FFF7DEFCA86A002803D028461830FFF731
:10262000D7FCE86AA169884200D9A0611421484317
:1026300006494018291DFFF70FFDE86A2168C96A9D
:102640008842CCD30127CAE71C0000209803002051
:1026500070B500210446002828D0154D2868844212
:1026600001D072B6FEE7A06C002808D0401EA0641E
:10267000636CE26A9A4219D0002802D016E072B662
:10268000FEE7201DFFF7A4FC606C0721E062081A3A
:10269000A061E06AA969884200D9A8611421484371
:1026A00004494018211DFFF7D7FC0121084670BDE1
:1026B0001C0000209803002070B5C068C468002C7E
:1026C0000BD0204618300646FFF782FC114DA86B50
:1026D000002804D0314610480FE072B6FEE7201DF6
:1026E000FFF776FCE06AA969884200D9A861142145
:1026F00048430949B4394018211DFFF7ADFCE06A91
:102700002968C96A884202D90120686270BD002028
:1027100070BD00001C0000204C040020F8B5284CBF
:102720000025A06B2E46002808D0FFF7A1FCA06B67
:10273000401EA063A06B002802D03DE072B6FEE709
:102740002169204F00291DD136E0F868C568284668
:102750001830FFF73DFC281DFFF73AFCE86AA16935
:10276000884200D9A061142148431649B439401861
:10277000291DFFF771FCE86A2168C96A884201D304
:102780000120606238680028DFD1002D01D0FFF7FA
:1027900065FB256A002D09D00127FFF7FBFE002805
:1027A00000D067626D1EF8D100202062606A0028A8
:1027B00002D00126FFF798FCFFF766FC3046F8BD13
:1027C0001C0000204C0400204028000805180008C8
:1027D0000000000000000000800000000000000079
:1027E00000000000382800080D1800080000000054
:1027F0000000000080000000000000000000000059
:1028000002030405060708090A0B0C0D0E0F101031
:102810000102030405060708090A0B0C0D0E0F1030
:102820000000000000000000010203040607080980
:1028300000000000010203045461736B4C656400E6
:1028400064656661756C745461736B006C28000874
:10285000000000207400000000010008E0280008CB
:1028600074000020741600001C0100080000000025
:102870000000000000000000010000000400000053
:102880000000000000127A000000000000000000BC
:102890000000000000000000000000000000000038
:1028A0000000000000000000000000000000000028
:1028B0000000000000000000000000000000000018
:1028C0000000000000000000000000000000000008
:1028D000000000000000000000000000AAAAAAAA50
:04000005080000BD32
:00000001FF
