:020000040800F2
:10000000A816002011020008C1150008FB14000802
:1000100000000000000000000000000000000000E0
:10002000000000000000000000000000C3150008F0
:1000300000000000000000009701000839160008C9
:1000400023020008230200082302000823020008FC
:1000500023020008230200082302000823020008EC
:1000600023020008230200082302000823020008DC
:1000700023020008230200082302000823020008CC
:1000800023020008B5160008000000002302000843
:1000900023020008230200082302000823020008AC
:1000A000230200082302000823020008230200089C
:1000B00023020008000000002302000800F002F8FC
:1000C00000F03EF80CA030C8083824182D18A246BD
:1000D000671EAB4654465D46AC4201D100F030F895
:1000E0007E460F3E0FCCB6460126334200D0FB1AA7
:1000F000A246AB463343184764200000842000002A
:10010000103A02D378C878C1FAD8520701D330C860
:1001100030C101D504680C60704700000023002442
:1001200000250026103A01D378C1FBD8520700D32E
:1001300030C100D50B6070471FB51FBD10B510BD95
:1001400000F0D3F91146FFF7F7FF01F03FFB00F095
:10015000EBF903B4FFF7F2FF03BC00F0F1F9000084
:10016000084B19680868203080F30988022080F362
:100170001488BFF36F8F3FBCAE4608BC04BC62B6A8
:100180001847000020000020EFF3108072B670477F
:1001900080F310887047EFF309800E4B1A682038FF
:1001A0001060F0C044464D4656465F46F0C008B564
:1001B00072B601F029FE62B60CBC116808681030F6
:1001C000F0C8A046A946B246BB4680F3098820384D
:1001D000F0C818472000002070B505460C461646AA
:1001E00002E00FCC0FC5103E102EFAD2082E02D31B
:1001F00003CC03C5083E042E07D301CC01C5361F2E
:1002000003E021782970641C6D1C761EF9D270BD44
:100210000748804707480047FEE7FEE7FEE7FEE79E
:10022000FEE7FEE704480549054A064B7047000013
:10023000B1160008BD000008A8100020A816002074
:10024000A8120020A8120020FEB5054610460C4654
:10025000184373D0AE468C460020AD1A01469C412F
:1002600067D36646002701243D46B61A9D4102D356
:1002700013463A462124654676462F04360C3E4303
:100280002D0CB61A9D4104D3150C1B042B431204EC
:100290001034654676462F06360A3E432D0AB61AB6
:1002A0009D4104D3150E1B022B43120208346546F0
:1002B00076462F0736093E432D09B61A9D4104D3D1
:1002C000150F1B012B431201241D65467646AF070F
:1002D000B6083E43AD08B61A9D4104D3950F9B0066
:1002E0002B439200A41C65467646EF0776083E43F2
:1002F0006D08B61A9D411AD392185B41641C16E032
:100300000018764665464941B71A9D410191009013
:1003100009D36046B11A98418E46844600980199E7
:100320000025401C6941DD0752082A435B08641E12
:10033000E6D57246634603B0F0BDFFE700200146F4
:10034000C046C0462A462346F5E701E004C0091F1F
:100350000429FBD28B0701D50280801CC90700D07D
:100360000270704700290BD0C30702D00270401CF6
:10037000491E022904D3830702D50280801C891EEE
:10038000E3E70022EEE70022DFE7002203098B42C9
:100390002CD3030A8B4211D300239C464EE0034624
:1003A0000B433CD4002243088B4231D303098B42D8
:1003B0001CD3030A8B4201D394463FE0C3098B420E
:1003C00001D3CB01C01A524183098B4201D38B0167
:1003D000C01A524143098B4201D34B01C01A52410A
:1003E00003098B4201D30B01C01A5241C3088B424F
:1003F00001D3CB00C01A524183088B4201D38B003A
:10040000C01A524143088B4201D34B00C01A5241DB
:10041000411A00D201465241104670475DE0CA0FB2
:1004200000D04942031000D34042534000229C4672
:1004300003098B422DD3030A8B4212D3FC2289017C
:1004400012BA030A8B420CD3890192118B4208D352
:10045000890192118B4204D389013AD0921100E0B4
:100460008909C3098B4201D3CB01C01A52418309C8
:100470008B4201D38B01C01A524143098B4201D3F5
:100480004B01C01A524103098B4201D30B01C01A20
:100490005241C3088B4201D3CB00C01A524183089A
:1004A0008B4201D38B00C01A5241D9D243088B42F0
:1004B00001D34B00C01A5241411A00D20146634693
:1004C00052415B10104601D34042002B00D54942F7
:1004D000704763465B1000D3404201B50020C04620
:1004E000C04602BD704770477047754600F024F85B
:1004F000AE46050069465346C008C000854618B0A0
:1005000020B5FFF78FFE60BC00274908B6460026DD
:10051000C0C5C0C5C0C5C0C5C0C5C0C5C0C5C0C5B3
:10052000403D49008D46704710B50446C046C04660
:100530002046FFF70EFE10BD004870474410002013
:1005400001491820ABBEFEE72600020070470000FC
:10055000F8B5044600200090206881688907890F5B
:10056000012905D10168C90731D1C16809042ED418
:100570008168184A10261140012500291AD1816886
:1005800029438160154814490068FFF7FEFE00E02A
:10059000401E00900028FBD100F06AFB074611E0E6
:1005A00000F066FBC01B02280CD920680068C0431D
:1005B000C00707D0A06B3043A063E06B2843E06323
:1005C0000120F8BD20680068C043C007E8D10020C2
:1005D000F8BD00001700008040420F001C00002002
:1005E000F8B5054604462035287D0026012808D0A8
:1005F00001202875206881688907890F012908D1A1
:1006000001E00220F8BD0168C9073CD1C1680904B6
:1006100039D4A16BFF220132914302221143A1631D
:10062000C1688907890F0091C16889088900C16084
:100630002068816892071143816000F019FB07462A
:1006400012E000F015FBC01B02280DD9206880685D
:10065000002809DAA06B0221884310210843A06317
:10066000002028750120F8BD206880680028E8DB9C
:100670002068C168009A1143C160A06B80088000A7
:10068000401CA06304E0A06B20210843A063012666
:10069000002028753046F8BDF8B500250446203402
:1006A0000095227D012A3BD00122227503689E68B5
:1006B000760776D43F4F4E68BE4254D09E6A0F787C
:1006C000BA4016439E620123C26A1B079A421FD09A
:1006D000012A1DD0022A1BD0032A19D0042A17D0C0
:1006E000052A15D0062A13D0072A11D002688B6874
:1006F00056697607760FB3420AD05369DB08DB00F0
:100700005361006842690B7A5B075B0F1A434261D1
:100710000868102806D0112804D0122802D045E01D
:100720000220F8BD244A9368102809D011280AD065
:1007300001200006034393600868102806D035E0C6
:100740000120C005F6E701208005F3E71C481B499E
:100750000068FFF71AFE0A21484300E0401E00909F
:100760000028FBD122E0986A0E78B240904398624C
:100770000868102803D0112801D0122816D10E497C
:100780008A68102807D0112808D00120000682436B
:100790008A600BE005E00120C005F8E70120800534
:1007A000F5E7816B2022114381630125002020752C
:1007B0002846F8BD011000000027014040420F000C
:1007C0001C0000200068006C70470000F8B500268F
:1007D0000446002805D0A06B25462035002802D00D
:1007E00007E00120F8BD0020E0632875204600F0F6
:1007F000A9F8A06B1022C006002870DB2068816871
:1008000049076CD4A16B1301994302231943A163D7
:1008100081688907890F012905D10168C9070FD1AE
:10082000C16809040CD4C16818239943A36819430B
:10083000C160206801696368890089081943016102
:100840002068C1683D4B1940C160207E617E8003F5
:10085000C9030843A17E4B031843A36A012B02D0AE
:1008600001231B0300E000231843E36818432369B6
:10087000022B09D0002318432B79E57E5B00184337
:100880000123012D02D00AE00423F4E7002927D038
:10089000A16B20252943A163E16B1943E163E16961
:1008A0000D46FF3DC23D02D0256A29430843216819
:1008B000CD680543CD600125E16A2D07A94213D01B
:1008C000012911D002290FD003290DD004290BD002
:1008D000052909D0062907D0072905D010E028E00E
:1008E000012109040843DAE721684D69ED08ED00AC
:1008F0004D6121684D69A78D7F077F0F3D434D6195
:100900002168C9680E4D2940814207D10020E0636B
:10091000A06B80088000401CA06308E0A06B02214F
:1009200088431043A063E06B1843E0630126304620
:10093000F8BDA06B1043A063F8E700001902FEFFAA
:10094000E7FF3F8310B586B0044614216846FFF7E1
:100950001AFD10492068884219D10F488269411553
:100960000A43826182690A400592426909020A4388
:1009700042614069084005900120009003200190E9
:100980000020029009206946C00600F099F806B0E0
:1009900010BD00000024014000100240F8B50446DC
:1009A0004069254620350E4608280BD02068C068CF
:1009B000C00709D0A06B20210843A0630020287540
:1009C0000120F8BD082700E00C2700F051F9009045
:1009D00015E0701C13D0002E05D000F049F90099E5
:1009E000401AB0420BD920680068384207D1A06B8A
:1009F00004210843A063002028750320F8BD206867
:100A000000683842E5D0A06B012149020843A06389
:100A10002068C16809058A0F0C21002A1AD1A27E1C
:100A2000002A17D10268120714D5826853070122E1
:100A3000002B08DB43688B434360A06B1302984391
:100A40001043A06306E0A06B20231843A063E06B73
:100A50001043E063207E002801D12068016000205F
:100A6000F8BD000070B50446216800208968490778
:100A700021D425462035297D01291CD00121297545
:100A8000617E012904D02046FFF762FD002811D1C4
:100A9000A16B0A4A1140FF2201321143A1630021D8
:100AA000E163297522681C21116021688A6804238A
:100AB0001A438A6070BD022070BD0000FEF1FFFF86
:100AC000F8B5002303240125BAE02E469E40B44623
:100AD00032407CD00E79B607B60F012E01D0022E1F
:100AE00017D186682746B6465E00B7400096764620
:100AF000BE43B646CF68009EB74076463743876010
:100B000046686746BE430F79FF06FF0F9F40374395
:100B100047600E79F643B6070ED0C6682746B4463E
:100B20005E00B646B7406646BE43B4468F6876461A
:100B3000B74066463743C7600E79B607B60F022E38
:100B400014D1DE08B60036180096366A5F07B44640
:100B5000FE0E0F27B646B7406646BE43B4460F6941
:100B60007646B74066463743009E3762066827469A
:100B7000B4465E00B646B7406646BE430F79B446FB
:100B8000BF07BF0F7646B7406646374307604E68DB
:100B9000B603B60F53D02D4FBE692E43BE61BE695A
:100BA0009F08F607F60F2A4EBF00BE190096B668DA
:100BB0000F27B4469E07360FB646B7406646BE437B
:100BC0000927FF06B446B84202D1002710E036E0FC
:100BD000204FB84201D101270AE01F4FB84201D18E
:100BE000022705E01D4FB84201D1032700E0052789
:100BF0007646B74066463743009EB760184EB668E3
:100C00004F689643FF0200D51643154FBE60FE683D
:100C10004F689643BF0200D51643114FFE607E68B1
:100C20004F689643BF0300D516430D4F7E603E6864
:100C30004F689643FF0300D51643094A16605B1CB4
:100C40000A681646DE4000D03FE7F8BD00100240BB
:100C5000000001400004004800080048000C004863
:100C600000040140002A01D0816170478162704711
:100C70000148806870470000100000200248816829
:100C800002788918816070471000002010B506486E
:100C90000168102211430160032000F007F800F002
:100CA00053F8002010BD00000020024030B505467A
:100CB0001F4887B0C26910210A43C261C069084059
:100CC000009005A901A800F0EBF80498002815D0C1
:100CD00000F002F940001749FFF757FB411E174883
:100CE000154A0260164AC2604160002101618160BC
:100CF000816100F0F1FA040003D015E000F0ECF897
:100D0000E9E70E4800F00EFB04000DD1112000F0C1
:100D100033F8042D07D200222946112000F038F8BC
:100D20000848056000E00124204607B030BD0000FF
:100D30000010024040420F00001000400C03002051
:100D4000E70300001400002008B50A488169012269
:100D500011438161816911400091C26901040A4314
:100D6000C261C0690022084003210090481F00F0C2
:100D70000FF808BD00100240002805DBC106C90EAF
:100D800001208840014908607047000000E100E050
:100D900010B500F0F9FC10BDF8B50F46060059D0AB
:100DA0003A4D2868C007C00FB84209D228684008E9
:100DB0004000384328602868C007C00FB84249D1B6
:100DC0003068334C81070CD5400704D56068072193
:100DD0000902084360606068F0218843B1680843F5
:100DE00060603078C00726D0706801280ED0216876
:100DF00002280ED0890700292CDA61688908890049
:100E000001436160FFF734FF00900DE02168890322
:100E1000F1E78901EFE7FFF72BFF0099411A1D4821
:100E2000814201D90320F8BD60680C210840716837
:100E300089008842EFD12868C007C00FB8420BD99B
:100E4000286840084000384328602868C007C00F61
:100E5000B84201D00120F8BD3078400706D560685F
:100E6000072109028843F1680843606000F044F8F4
:100E70006168094A0906090F515CC84007490860C2
:100E80000320FFF713FF0020F8BD00000020024000
:100E90000010024088130000242100081C000020DC
:100EA00010B5072202600A4A53689B079B0F4360F4
:100EB0005368F02423408360526807231B021A40C2
:100EC000C26004480068C007C00F086010BD000081
:100ED00000100240002002400448054900684968AB
:100EE000044A4905490F515CC84070471C00002066
:100EF000001002403421000810B5104A51680C203F
:100F00000B4603400E48042B17D0082B15D18B023B
:100F10000C4C1B0FE45CD26A0A4B1207120F103301
:100F20009A5CC90305D500231946FFF78DF92146C0
:100F300001E02046044900F00FFC10BD0010024003
:100F400000127A000421000800093D00FEB50400EB
:100F500070D02078DC4DC0074AD068680007800F49
:100F6000012807D068680007800F022809D1686847
:100F7000C00306D5286880033AD560680028E7D00A
:100F800036E06168012914D001208004002901D0D5
:100F9000052914D02A68012109048A432A60296896
:100FA000814329606068002816D0FFF761FE06467D
:100FB0000EE028680121090408432860F2E7296847
:100FC00001432960F5E7FFF753FE801B64286ED8C4
:100FD00028688003F7D50BE0FFF74AFE064604E0D9
:100FE000FFF746FE801B6428F1D828688003F7D4F9
:100FF00020780126800700283CDA68680007800F07
:1010000007D068680007800F022809D16868C0030C
:1010100006D42868800716D5E06801280AD112E0B6
:10102000E0680028286816D030432860FFF720FECB
:10103000074605E043E1FFF71BFEC01B0228C6D8A8
:1010400028688007F7D52868F82188432169C900F6
:10105000084328600EE0400840002860FFF708FEC3
:10106000074604E0FFF704FEC01B0228AFD828683B
:101070008007F7D42078000722D5E0690028686A45
:101080000ED030436862FFF7F3FD074604E0FFF738
:10109000EFFDC01B02289AD8686A8007F7D50FE0D9
:1010A000400840006862FFF7E3FD074605E09DE069
:1010B000FFF7DEFDC01B022889D8686A8007F7D4D5
:1010C000207804274007002860DA00200190E869B2
:1010D000C00008D4E969B8060143E961E969014043
:1010E00001200091019079480168C90511D4016877
:1010F000821511430160FFF7BBFD009005E0FFF78B
:10110000B7FD0099401A642870D870480068C0057F
:10111000F5D5A06801280AD0002801D0052810D0F4
:10112000286A400840002862286AB84301E0286A1B
:1011300030432862A068002812D0FFF799FD009084
:101140000AE0286A38432862F1E7FFF791FD009929
:10115000411A5F48814249D8286A8007F5D50DE0D9
:10116000FFF786FD009006E0FFF782FD0099411A27
:10117000574881423AD8286A8007F5D40198002858
:1011800004D0E969012000078143E9612078C006A5
:1011900035D5606901280CD0401D686B23D03843D9
:1011A0006863686B400840006863FFF761FD0646AE
:1011B00022E0686B38436863686B30436863FFF70D
:1011C00057FD064604E0FFF753FD801B02285BD85D
:1011D000686B8007F7D5686BF8218843A169C9005F
:1011E000084368630BE0B8436863F4E74CE0FFF73B
:1011F0003FFD801B022847D8686B8007F7D4206A20
:1012000000285ED069680907890F022942D00126AB
:1012100036060228286805D0B0432860FFF728FD6D
:10122000044633E0B0432860FFF722FD074604E0A0
:10123000FFF71EFDC01B022826D828688001F7D4BE
:10124000E86AE16A000900010843E862616AA06A8D
:10125000084369683D221204914308436860286886
:1012600030432860FFF704FD044604E0FFF700FD6B
:10127000001B022808D828688001F7D521E0FFF775
:10128000F7FC001B022801D90320FEBD286880015D
:10129000F5D416E00128F8D06868E96A0122120442
:1012A000636A02409A420AD10907E26A090F914231
:1012B00005D10F2189040840A16A884201D001208C
:1012C000FEBD0020FEBD0000001002400070004086
:1012D000881300007047704770B5040005D025469C
:1012E0002035687F002802D006E0012070BD002074
:1012F0002877204600F014F802206877211D206826
:1013000000F0E0F901204034A071A877E877207060
:101310006070A070E070207160716877002070BD0F
:1013200070470000014620314A7F012A01D0012088
:10133000704702224A770268D36801210B43D360C9
:1013400000680B4A904208D08A07904205D0094AAB
:10135000904202D0084A904204D182685207520F4C
:10136000062A02D002680A4302600020704700008B
:10137000002C01400004004000400140704770B55F
:101380000446006801690025C9438907002915DB67
:10139000C168C943890711D4E91E01610120207782
:1013A000206880698007204602D0FFF7E7FF04E04D
:1013B00000F096F8204600F094F82577206801693F
:1013C000C943490717D4C168C943490713D4042145
:1013D000C943016102202077206880698005800F61
:1013E000204602D0FFF7CAFF04E000F079F820465B
:1013F00000F077F8257720680169C943090716D4FA
:10140000C168C943090712D40821C94301610420F6
:1014100020772068C0698007204602D0FFF7AEFF22
:1014200004E000F05DF8204600F05BF825772068C6
:101430000169C943C90617D4C168C943C90613D491
:101440001021C9430161082020772068C069800508
:10145000800F204602D0FFF791FF04E000F040F833
:10146000204600F03EF8257720680169C943C90786
:1014700008D1C168C943C90704D1891E016120464A
:1014800000F030F820680169C943090609D4C16831
:10149000C943090605D48021C94301612046FFF7ED
:1014A00019FF20680169C943490609D4C168C943C5
:1014B000490605D44021C9430161204600F01CF8CB
:1014C00020680169C943890609D4C168C9438906EE
:1014D00005D42021C94301612046FFF7FCFE70BD01
:1014E0007047704710B500680249884201D1FFF784
:1014F000C5FB10BD001000407047FEE73EB500245C
:101500001649174800940194029412C00460042202
:101510004460C26001218160047444748474C474A2
:10152000FF22C232846142610246183214710162A4
:101530000838FFF74BF9002801D072B6FEE701200A
:101540000003019000040290009469460448FFF7EC
:10155000A3F8002801D072B6FEE73EBD002401408A
:101560007800002030B587B014216846FEF70BFFE5
:1015700011484269012149040A43426142690A4013
:101580000592426989000A43426140690B4D084057
:10159000CC120590002221462846FFF763FB00216C
:1015A0000120029103910190009469462846FFF7BB
:1015B00087FA07B030BD0000001002400008004864
:1015C000FEE77047012000F039F9FBE7084CFF25E2
:1015D000084E01352278012A02D0022A04D10022C5
:1015E00029463046FFF73EFB012000F027F9F1E7DE
:1015F00000000020000800480D48FEF7F1FF0C48ED
:10160000FFF730FA7D25ED0001260A4C0227012163
:101610000748FFF7C3F90648FFF7D4F8A84201D9F5
:10162000267000E02770012000F008F9EFE70000C5
:10163000780000200000002010B5FEF7A5FD04464C
:1016400000F082FC002803D0012003490007486015
:101650002046FEF79DFD10BD00ED00E010B590B0F6
:1016600030216846FEF78FFE002412200F94009070
:1016700001200D940390059010200E940490069084
:101680000C9408946846FFF761FC002801D072B6FC
:10169000FEE707200C900D940E9400210F940CA8E7
:1016A000FFF77AFB002801D072B6FEE710B010BD3C
:1016B0007047000010B50248FFF761FE10BD000042
:1016C0000C030020F0B502681D4B0124A4071D4D3A
:1016D000984203D0A04201D0A84203D17026B24361
:1016E0004E683243184E194F98420DD0A0420BD08D
:1016F000A84209D0164CA04206D0B04204D0B8424D
:1017000002D0144CA04204D103242402A243CC688A
:1017100022438024A2434C69224302608A68C26249
:101720000A688262984206D0B04204D0B84202D021
:10173000084A904201D10969016301214161F0BD6C
:10174000002C0140000400400040014000440140E2
:101750000020004000480140F8B5040C8BB226463A
:1017600082B25E430D0C1046370C58433604801984
:101770000021794116466E43370C360480197941B1
:1017800026466E438919F8BD8307FF22DB0E9A4077
:101790008907090E9940002808DB830809489B0047
:1017A0001B18186890430843186070470007000F23
:1017B0000838830804489B001B18D86990430843E5
:1017C000D861704700E400E000ED00E096B0FFF75C
:1017D0005DFAFFF743FFFFF7C5FEFFF78FFE1C2200
:1017E00011496846FEF7F8FC0021684600F033F81E
:1017F0000E4C0D4960601C221C3107A8FEF7ECFC62
:10180000002107A800F027F80749A0601C22383102
:101810000EA8FEF7E1FC00210EA800F01CF8E06025
:1018200000F014F8FEE70000B020000800000020DF
:1018300001460020842900D0C81C704710B500283C
:1018400000D1012000F094FA002010BD10B500F086
:10185000A7FA002010BD7FB50D4604464169082057
:10186000205E002911D0A16900290ED0FFF7E0FF0A
:101870006B46A269616907C32B46226921686068CB
:1018800000F03FFB039004B070BDFFF7D1FF03A948
:1018900001910090208A2B4682B22168606800F096
:1018A00007FB012801D00020EDE70398EBE70000DB
:1018B000F8B5134C0F46666905462068001D00F018
:1018C000BFF9681C07D1002F05D021680D48091DFC
:1018D00000F0FAF9F8BD2068751945602168B54235
:1018E00004D2A068091D00F0D7F9F8BD6068091D91
:1018F00000F0D2F9206B8542F7D22563F8BD0000D5
:101900002000002030040020F8B5054600F0E8F97A
:10191000294C2069401C20612068284F002803D0F2
:10192000E069002827D02CE025602069012828D113
:10193000002614207043C01900F0A0F9761C072E71
:10194000F7D31E488C3000F099F91C48A03000F005
:1019500095F91A48B43000F091F91848C83000F0F1
:101960008DF91648DC3000F089F914488C3060603D
:101970001430A06005E02068E96AC06A884200D897
:101980002560E06A401CE062E86AA169884200D9EB
:10199000A06114214843C019291D00F095F900F0F9
:1019A000ABF9E069002806D02068E96AC06A88427D
:1019B00001D200F0D1F9F8BD20000020540300202E
:1019C00010B504464030407C002805D0012806D0E0
:1019D000022807D072B6FEE7206B00F09BF9204684
:1019E00000F098F910BD000003210E48890242075B
:1019F00005D0C01DC0080B4AC000821A891A0A4AC5
:101A00000023411809C20839C908C900183A1160F1
:101A10004B600B600B1A0AC093600120C007536033
:101A2000D0607047440400206C0000200F4E104C22
:101A30003746C83F11E000F053F9F068C568281D2B
:101A400000F0FEF82069401E2061E068401EE06062
:101A500000F052F92846FFF7B3FFE0680028EAD10A
:101A600038680128F9D900F077F9F6E71C0400205E
:101A700020000020FFB581B00C9C9000236B001F5C
:101A80001818C6080A9DF600700701D072B6FEE766
:101A900023180A5C20331A750A5C002A02D0401C05
:101AA0001028F5D32046403000270090C770072D3E
:101AB00000D30625E562A764201D656400F0E9F8FF
:101AC0002046183000F0E5F824610720401B6462CE
:101AD000A061E764009807743046049A019900F009
:101AE0009FF820600B98002800D0046005B0F0BD7E
:101AF00030B5114900E011460A688242FBD34B68B9
:101B00005C18844203D1406818184860084643684E
:101B10001C18944209D1084C103C2468A24209D0F8
:101B200052689A1842600A6812680260814200D0C6
:101B3000086030BD0460F9E76C0000200648416889
:101B40000968002905D04168C968C9684968016306
:101B500070470021C943FAE72000002003480068CD
:101B6000401C72B600D0FEE7FEE7000074000020C3
:101B7000F8B50546002700F03FF9284E30680028E8
:101B800001D1FFF731FFF06805423FD1002D3DD074
:101B90000835680708D06807400F0821081A45195A
:101BA000680701D072B6FEE7002D2FD0706885421D
:101BB0002CD81A48103001460C6801E020460C462B
:101BC0006168A94202D221680029F7D131688C42AC
:101BD0001CD007682168016060680837411B102924
:101BE00008D96019420701D072B6FEE7416065600E
:101BF000FFF77EFF61687068401A7060B2689042BB
:101C000000D2B060F0680143002003C400F0FAF98C
:101C1000780701D072B6FEE73846F8BD5C000020B8
:101C200010B50124031F24061C601B1F1960191F17
:101C3000024B0B60143940380A6010BD5D1B000870
:101C40004368826801699A60836842685A604A689A
:101C5000824201D182684A60002202610868401E07
:101C60000860086870470000034B03601846543052
:101C70000860802010607047B800002001460831DD
:101C800000224160D243C160826001610021016095
:101C9000704700210161704730B50B685A1C02D0B3
:101CA0000246083202E0026904E0224654682568D0
:101CB0009D42FAD953684B6099608A60516008610F
:101CC0000168491C016030BD42684A6093688B60BE
:101CD00093685960916008610168491C0160704710
:101CE00072B604480168491C0160BFF34F8FBFF30F
:101CF0006F8F70477400002005490868002804D0E1
:101D0000401E086000D162B6704772B6FEE7000060
:101D10007400002070B500281AD004460D4D083C10
:101D20006068E968084201D172B6FEE72268002ABD
:101D300001D072B6FEE78843606000F05DF860682D
:101D40006968401868602046FFF7D2FE00F05AF933
:101D500070BD00005C0000200120044900074860BD
:101D6000BFF34F8FBFF36F8F7047000000ED00E0AF
:101D700010B502000FD00948806B002801D072B660
:101D8000FEE700F039F800211046FFF791FD00F062
:101D900039F9002801D1FFF7DFFF10BD2000002036
:101DA00010B586B00024039405AA04A903A80494DE
:101DB000FFF75AFF049903980094019102900023C1
:101DC00009A10B48059A00F09CF80A4900284863CD
:101DD00008D072B60020C04308630120C8614C617E
:101DE00000F03EF806B010BD49444C45000000002C
:101DF0002D1A0008200000200248816B491C8163D5
:101E0000704700002000002010B51348816B0029A6
:101E100002D00121416210BD0021416281690F4A57
:101E200002E0002915D0491E14234B43D358002B40
:101E3000F7D014234B439A18536814465B68083450
:101E40005360A34201D15B685360DA68026081612C
:101E500010BD72B6FEE700002000002054030020F1
:101E600070B50F48016AFF22120411430162016A32
:101E70001202114301620B4C00252561A5610A483D
:101E80007D21C9000068FEF780FA401E60610720CE
:101E9000206106480560FEF763F9002070BD000070
:101EA00000ED00E000E000E01C00002074000020D5
:101EB000FFB585B0164690000F9FFFF759FE05004D
:101EC0001CD05420FFF754FE040014D000205121F0
:101ED000256308550E9900910390019702943246AC
:101EE000089B06990598FFF7C5FD2046FFF70CFDF6
:101EF000012009B0F0BD2846FFF70CFF0020C043C9
:101F0000F7E7F0B585B007460B9D0C9C0A98002DAD
:101F100015D0002C15D054262563022551263555A1
:101F2000002504AE00900196039502943846FFF711
:101F3000A1FD2046FFF7E8FC049805B0F0BD72B69D
:101F4000FEE772B6FEE70000F8B52C4C0027A06B48
:101F5000002808D0206A401C2062606A002800D057
:101F600001273846F8BD6669761C66610ED1606847
:101F70000068002801D072B6FEE76068A168616061
:101F8000A060A06A401CA062FFF7D8FD206B8642CB
:101F90000AD360680068002810D06068C068C5680F
:101FA000686886420DD2206320681421C06A4843C5
:101FB000134908580128D0D90127CEE70020C04393
:101FC000F1E7281DFFF73CFEA86A002803D0284649
:101FD0001830FFF735FEE86AA169884200D9A06190
:101FE0001421484306494018291DFFF76DFEE86A91
:101FF0002168C96A8842CCD30127CAE720000020A3
:1020000054030020F8B5284C0025A06B2E4600286C
:1020100008D0FFF765FEA06B401EA063A06B0028F0
:1020200002D03DE072B6FEE72169204F00291DD1A4
:1020300036E0F868C56828461830FFF701FE281D0D
:10204000FFF7FEFDE86AA169884200D9A06114216A
:1020500048431649B4394018291DFFF735FEE86A90
:102060002168C96A884201D301206062386800286B
:10207000DFD1002D01D0FFF761FD256A002D09D0C9
:102080000127FFF761FF002800D067626D1EF8D1BD
:1020900000202062606A002802D00126FFF75CFE63
:1020A000FFF72AFE3046F8BD20000020080400207B
:1020B00050210008C51500080000000000000000C5
:1020C0008000000000000000000000003C2100082B
:1020D000CD15000800000000000000008000000096
:1020E000000000000000000044210008F91500086D
:1020F0000000000000000000800000000000000060
:102100000000000002030405060708090A0B0C0D75
:102110000E0F10100102030405060708090A0B0C34
:102120000D0E0F100000000000000000010203046B
:102130000607080900000000010203045461736BE4
:102140004C6564005461736B4D6561737572650015
:1021500064656661756C745461736B007C21000862
:10216000000000207800000000010008F4210008B1
:1021700078000020301600001C010008000000005C
:10218000000000000000000000000000010000004E
:10219000040000000000000000127A0000000000AF
:1021A000000000000000000000000000000000002F
:1021B000000000000000000000000000000000001F
:1021C000000000000000000000000000000000000F
:1021D00000000000000000000000000000000000FF
:1021E00000000000000000000000000000000000EF
:0421F000AAAAAAAA43
:04000005080000BD32
:00000001FF
